{
  "_format": "hh-sol-artifact-1",
  "contractName": "Marketplace",
  "sourceName": "contracts/Marketplace.sol",
  "abi": [
    {
      "inputs": [],
      "stateMutability": "nonpayable",
      "type": "constructor"
    },
    {
      "inputs": [],
      "name": "ECDSAInvalidSignature",
      "type": "error"
    },
    {
      "inputs": [
        {
          "internalType": "uint256",
          "name": "length",
          "type": "uint256"
        }
      ],
      "name": "ECDSAInvalidSignatureLength",
      "type": "error"
    },
    {
      "inputs": [
        {
          "internalType": "bytes32",
          "name": "s",
          "type": "bytes32"
        }
      ],
      "name": "ECDSAInvalidSignatureS",
      "type": "error"
    },
    {
      "inputs": [],
      "name": "InvalidShortString",
      "type": "error"
    },
    {
      "inputs": [
        {
          "internalType": "address",
          "name": "owner",
          "type": "address"
        }
      ],
      "name": "OwnableInvalidOwner",
      "type": "error"
    },
    {
      "inputs": [
        {
          "internalType": "address",
          "name": "account",
          "type": "address"
        }
      ],
      "name": "OwnableUnauthorizedAccount",
      "type": "error"
    },
    {
      "inputs": [
        {
          "internalType": "string",
          "name": "str",
          "type": "string"
        }
      ],
      "name": "StringTooLong",
      "type": "error"
    },
    {
      "anonymous": false,
      "inputs": [],
      "name": "EIP712DomainChanged",
      "type": "event"
    },
    {
      "anonymous": false,
      "inputs": [
        {
          "indexed": true,
          "internalType": "address",
          "name": "seller",
          "type": "address"
        },
        {
          "indexed": false,
          "internalType": "uint256",
          "name": "amount",
          "type": "uint256"
        }
      ],
      "name": "FundsWithdrawn",
      "type": "event"
    },
    {
      "anonymous": false,
      "inputs": [
        {
          "indexed": true,
          "internalType": "uint256",
          "name": "listingId",
          "type": "uint256"
        },
        {
          "indexed": true,
          "internalType": "address",
          "name": "seller",
          "type": "address"
        },
        {
          "indexed": false,
          "internalType": "address",
          "name": "token",
          "type": "address"
        },
        {
          "indexed": false,
          "internalType": "uint256",
          "name": "amount",
          "type": "uint256"
        },
        {
          "indexed": false,
          "internalType": "uint256",
          "name": "price",
          "type": "uint256"
        }
      ],
      "name": "ItemListed",
      "type": "event"
    },
    {
      "anonymous": false,
      "inputs": [
        {
          "indexed": true,
          "internalType": "uint256",
          "name": "listingId",
          "type": "uint256"
        },
        {
          "indexed": true,
          "internalType": "address",
          "name": "buyer",
          "type": "address"
        },
        {
          "indexed": false,
          "internalType": "address",
          "name": "seller",
          "type": "address"
        },
        {
          "indexed": false,
          "internalType": "address",
          "name": "token",
          "type": "address"
        },
        {
          "indexed": false,
          "internalType": "uint256",
          "name": "amount",
          "type": "uint256"
        }
      ],
      "name": "ItemPurchased",
      "type": "event"
    },
    {
      "anonymous": false,
      "inputs": [
        {
          "indexed": true,
          "internalType": "address",
          "name": "previousOwner",
          "type": "address"
        },
        {
          "indexed": true,
          "internalType": "address",
          "name": "newOwner",
          "type": "address"
        }
      ],
      "name": "OwnershipTransferred",
      "type": "event"
    },
    {
      "inputs": [
        {
          "internalType": "address",
          "name": "participant",
          "type": "address"
        },
        {
          "internalType": "bytes",
          "name": "signature",
          "type": "bytes"
        }
      ],
      "name": "authorizeWithSignature",
      "outputs": [
        {
          "internalType": "bool",
          "name": "",
          "type": "bool"
        }
      ],
      "stateMutability": "view",
      "type": "function"
    },
    {
      "inputs": [],
      "name": "eip712Domain",
      "outputs": [
        {
          "internalType": "bytes1",
          "name": "fields",
          "type": "bytes1"
        },
        {
          "internalType": "string",
          "name": "name",
          "type": "string"
        },
        {
          "internalType": "string",
          "name": "version",
          "type": "string"
        },
        {
          "internalType": "uint256",
          "name": "chainId",
          "type": "uint256"
        },
        {
          "internalType": "address",
          "name": "verifyingContract",
          "type": "address"
        },
        {
          "internalType": "bytes32",
          "name": "salt",
          "type": "bytes32"
        },
        {
          "internalType": "uint256[]",
          "name": "extensions",
          "type": "uint256[]"
        }
      ],
      "stateMutability": "view",
      "type": "function"
    },
    {
      "inputs": [],
      "name": "getListings",
      "outputs": [
        {
          "components": [
            {
              "internalType": "uint256",
              "name": "id",
              "type": "uint256"
            },
            {
              "internalType": "address",
              "name": "seller",
              "type": "address"
            },
            {
              "internalType": "address",
              "name": "token",
              "type": "address"
            },
            {
              "internalType": "uint256",
              "name": "amount",
              "type": "uint256"
            },
            {
              "internalType": "uint256",
              "name": "price",
              "type": "uint256"
            },
            {
              "internalType": "bool",
              "name": "active",
              "type": "bool"
            }
          ],
          "internalType": "struct Marketplace.Listing[]",
          "name": "",
          "type": "tuple[]"
        }
      ],
      "stateMutability": "view",
      "type": "function"
    },
    {
      "inputs": [
        {
          "internalType": "address",
          "name": "token",
          "type": "address"
        },
        {
          "internalType": "uint256",
          "name": "amount",
          "type": "uint256"
        },
        {
          "internalType": "uint256",
          "name": "price",
          "type": "uint256"
        },
        {
          "internalType": "bytes",
          "name": "signature",
          "type": "bytes"
        }
      ],
      "name": "listItem",
      "outputs": [],
      "stateMutability": "nonpayable",
      "type": "function"
    },
    {
      "inputs": [],
      "name": "listingCount",
      "outputs": [
        {
          "internalType": "uint256",
          "name": "",
          "type": "uint256"
        }
      ],
      "stateMutability": "view",
      "type": "function"
    },
    {
      "inputs": [
        {
          "internalType": "uint256",
          "name": "",
          "type": "uint256"
        }
      ],
      "name": "listings",
      "outputs": [
        {
          "internalType": "uint256",
          "name": "id",
          "type": "uint256"
        },
        {
          "internalType": "address",
          "name": "seller",
          "type": "address"
        },
        {
          "internalType": "address",
          "name": "token",
          "type": "address"
        },
        {
          "internalType": "uint256",
          "name": "amount",
          "type": "uint256"
        },
        {
          "internalType": "uint256",
          "name": "price",
          "type": "uint256"
        },
        {
          "internalType": "bool",
          "name": "active",
          "type": "bool"
        }
      ],
      "stateMutability": "view",
      "type": "function"
    },
    {
      "inputs": [],
      "name": "owner",
      "outputs": [
        {
          "internalType": "address",
          "name": "",
          "type": "address"
        }
      ],
      "stateMutability": "view",
      "type": "function"
    },
    {
      "inputs": [
        {
          "internalType": "uint256",
          "name": "listingId",
          "type": "uint256"
        },
        {
          "internalType": "bytes",
          "name": "signature",
          "type": "bytes"
        }
      ],
      "name": "purchaseItem",
      "outputs": [],
      "stateMutability": "payable",
      "type": "function"
    },
    {
      "inputs": [],
      "name": "renounceOwnership",
      "outputs": [],
      "stateMutability": "nonpayable",
      "type": "function"
    },
    {
      "inputs": [
        {
          "internalType": "address",
          "name": "",
          "type": "address"
        }
      ],
      "name": "sellerEarnings",
      "outputs": [
        {
          "internalType": "uint256",
          "name": "",
          "type": "uint256"
        }
      ],
      "stateMutability": "view",
      "type": "function"
    },
    {
      "inputs": [
        {
          "internalType": "address",
          "name": "newOwner",
          "type": "address"
        }
      ],
      "name": "transferOwnership",
      "outputs": [],
      "stateMutability": "nonpayable",
      "type": "function"
    },
    {
      "inputs": [
        {
          "internalType": "bytes",
          "name": "signature",
          "type": "bytes"
        }
      ],
      "name": "withdrawFunds",
      "outputs": [],
      "stateMutability": "nonpayable",
      "type": "function"
    }
  ],
  "bytecode": "0x61016060405234801561001157600080fd5b506040518060400160405280600b81526020017f4d61726b6574706c6163650000000000000000000000000000000000000000008152506040518060400160405280600181526020017f310000000000000000000000000000000000000000000000000000000000000081525033600073ffffffffffffffffffffffffffffffffffffffff168173ffffffffffffffffffffffffffffffffffffffff16036100f15760006040517f1e4fbdf70000000000000000000000000000000000000000000000000000000081526004016100e891906103d2565b60405180910390fd5b610100816101b060201b60201c565b5061011560018361027460201b90919060201c565b610120818152505061013160028261027460201b90919060201c565b6101408181525050818051906020012060e08181525050808051906020012061010081815250504660a0818152505061016e6102c460201b60201c565b608081815250503073ffffffffffffffffffffffffffffffffffffffff1660c08173ffffffffffffffffffffffffffffffffffffffff168152505050506108c8565b60008060009054906101000a900473ffffffffffffffffffffffffffffffffffffffff169050816000806101000a81548173ffffffffffffffffffffffffffffffffffffffff021916908373ffffffffffffffffffffffffffffffffffffffff1602179055508173ffffffffffffffffffffffffffffffffffffffff168173ffffffffffffffffffffffffffffffffffffffff167f8be0079c531659141344cd1fd0a4f28419497f9722a3daafe3b4186f6b6457e060405160405180910390a35050565b60006020835110156102965761028f8361031f60201b60201c565b90506102be565b826102a68361038760201b60201c565b60000190816102b5919061063d565b5060ff60001b90505b92915050565b60007f8b73c3c69bb8fe3d512ecc4cf759cc79239f7b179b0ffacaa9a75d522b39400f60e051610100514630604051602001610304959493929190610737565b60405160208183030381529060405280519060200120905090565b600080829050601f8151111561036c57826040517f305a27a9000000000000000000000000000000000000000000000000000000008152600401610363919061080f565b60405180910390fd5b80518161037890610861565b60001c1760001b915050919050565b6000819050919050565b600073ffffffffffffffffffffffffffffffffffffffff82169050919050565b60006103bc82610391565b9050919050565b6103cc816103b1565b82525050565b60006020820190506103e760008301846103c3565b92915050565b600081519050919050565b7f4e487b7100000000000000000000000000000000000000000000000000000000600052604160045260246000fd5b7f4e487b7100000000000000000000000000000000000000000000000000000000600052602260045260246000fd5b6000600282049050600182168061046e57607f821691505b60208210810361048157610480610427565b5b50919050565b60008190508160005260206000209050919050565b60006020601f8301049050919050565b600082821b905092915050565b6000600883026104e97fffffffffffffffffffffffffffffffffffffffffffffffffffffffffffffffff826104ac565b6104f386836104ac565b95508019841693508086168417925050509392505050565b6000819050919050565b6000819050919050565b600061053a6105356105308461050b565b610515565b61050b565b9050919050565b6000819050919050565b6105548361051f565b61056861056082610541565b8484546104b9565b825550505050565b600090565b61057d610570565b61058881848461054b565b505050565b5b818110156105ac576105a1600082610575565b60018101905061058e565b5050565b601f8211156105f1576105c281610487565b6105cb8461049c565b810160208510156105da578190505b6105ee6105e68561049c565b83018261058d565b50505b505050565b600082821c905092915050565b6000610614600019846008026105f6565b1980831691505092915050565b600061062d8383610603565b9150826002028217905092915050565b610646826103ed565b67ffffffffffffffff81111561065f5761065e6103f8565b5b6106698254610456565b6106748282856105b0565b600060209050601f8311600181146106a75760008415610695578287015190505b61069f8582610621565b865550610707565b601f1984166106b586610487565b60005b828110156106dd578489015182556001820191506020850194506020810190506106b8565b868310156106fa57848901516106f6601f891682610603565b8355505b6001600288020188555050505b505050505050565b6000819050919050565b6107228161070f565b82525050565b6107318161050b565b82525050565b600060a08201905061074c6000830188610719565b6107596020830187610719565b6107666040830186610719565b6107736060830185610728565b61078060808301846103c3565b9695505050505050565b600082825260208201905092915050565b60005b838110156107b957808201518184015260208101905061079e565b60008484015250505050565b6000601f19601f8301169050919050565b60006107e1826103ed565b6107eb818561078a565b93506107fb81856020860161079b565b610804816107c5565b840191505092915050565b6000602082019050818103600083015261082981846107d6565b905092915050565b600081519050919050565b6000819050602082019050919050565b6000610858825161070f565b80915050919050565b600061086c82610831565b826108768461083c565b90506108818161084c565b925060208210156108c1576108bc7fffffffffffffffffffffffffffffffffffffffffffffffffffffffffffffffff836020036008026104ac565b831692505b5050919050565b60805160a05160c05160e051610100516101205161014051612b9361092260003960006114560152600061141b015260006118f8015260006118d70152600061158a015260006115e0015260006116090152612b936000f3fe6080604052600436106100a75760003560e01c8063a9a7a7e811610064578063a9a7a7e8146101a1578063a9b07c26146101ca578063c6f82a7a146101f5578063de74e57b14610232578063f1b2d6a314610274578063f2fde38b1461029f576100a7565b80632f359619146100ac5780633b56da69146100c8578063715018a6146100f157806384b0196e146101085780638b012358146101395780638da5cb5b14610176575b600080fd5b6100c660048036038101906100c19190611c80565b6102c8565b005b3480156100d457600080fd5b506100ef60048036038101906100ea9190611cdc565b61082f565b005b3480156100fd57600080fd5b506101066109dd565b005b34801561011457600080fd5b5061011d6109f1565b6040516101309796959493929190611f06565b60405180910390f35b34801561014557600080fd5b50610160600480360381019061015b9190611fb6565b610a9b565b60405161016d9190611fe3565b60405180910390f35b34801561018257600080fd5b5061018b610ab3565b6040516101989190611ffe565b60405180910390f35b3480156101ad57600080fd5b506101c860048036038101906101c39190612019565b610adc565b005b3480156101d657600080fd5b506101df610d99565b6040516101ec9190611fe3565b60405180910390f35b34801561020157600080fd5b5061021c6004803603810190610217919061209c565b610d9f565b6040516102299190612113565b60405180910390f35b34801561023e57600080fd5b506102596004803603810190610254919061212e565b610df4565b60405161026b9695949392919061215b565b60405180910390f35b34801561028057600080fd5b50610289610e7d565b6040516102969190612304565b60405180910390f35b3480156102ab57600080fd5b506102c660048036038101906102c19190611fb6565b611168565b005b6102d233826111ee565b610311576040517f08c379a000000000000000000000000000000000000000000000000000000000815260040161030890612372565b60405180910390fd5b61031a8261128e565b610359576040517f08c379a0000000000000000000000000000000000000000000000000000000008152600401610350906123de565b60405180910390fd5b60006003600084815260200190815260200160002090508060050160009054906101000a900460ff166103c1576040517f08c379a00000000000000000000000000000000000000000000000000000000081526004016103b89061244a565b60405180910390fd5b80600401543414610407576040517f08c379a00000000000000000000000000000000000000000000000000000000081526004016103fe906124b6565b60405180910390fd5b806004015434101561044e576040517f08c379a000000000000000000000000000000000000000000000000000000000815260040161044590612522565b60405180910390fd5b80600301548160020160009054906101000a900473ffffffffffffffffffffffffffffffffffffffff1673ffffffffffffffffffffffffffffffffffffffff166370a08231306040518263ffffffff1660e01b81526004016104b09190611ffe565b602060405180830381865afa1580156104cd573d6000803e3d6000fd5b505050506040513d601f19601f820116820180604052508101906104f19190612557565b1015610532576040517f08c379a0000000000000000000000000000000000000000000000000000000008152600401610529906125d0565b60405180910390fd5b8060010160009054906101000a900473ffffffffffffffffffffffffffffffffffffffff1673ffffffffffffffffffffffffffffffffffffffff163373ffffffffffffffffffffffffffffffffffffffff16036105c4576040517f08c379a00000000000000000000000000000000000000000000000000000000081526004016105bb9061263c565b60405180910390fd5b600081600301541161060b576040517f08c379a0000000000000000000000000000000000000000000000000000000008152600401610602906126a8565b60405180910390fd5b60008160050160006101000a81548160ff0219169083151502179055508060020160009054906101000a900473ffffffffffffffffffffffffffffffffffffffff1673ffffffffffffffffffffffffffffffffffffffff1663a9059cbb3383600301546040518363ffffffff1660e01b815260040161068b9291906126c8565b6020604051808303816000875af11580156106aa573d6000803e3d6000fd5b505050506040513d601f19601f820116820180604052508101906106ce919061271d565b61070d576040517f08c379a000000000000000000000000000000000000000000000000000000000815260040161070490612796565b60405180910390fd5b8060040154600560008360010160009054906101000a900473ffffffffffffffffffffffffffffffffffffffff1673ffffffffffffffffffffffffffffffffffffffff1673ffffffffffffffffffffffffffffffffffffffff168152602001908152602001600020600082825461078491906127e5565b925050819055503373ffffffffffffffffffffffffffffffffffffffff16837f6deea9734d7d5a255e86784c560121da652a9d4fb6e541b1a13850052a841c458360010160009054906101000a900473ffffffffffffffffffffffffffffffffffffffff168460020160009054906101000a900473ffffffffffffffffffffffffffffffffffffffff16856003015460405161082293929190612819565b60405180910390a3505050565b61083933826111ee565b610878576040517f08c379a000000000000000000000000000000000000000000000000000000000815260040161086f90612372565b60405180910390fd5b6000600560003373ffffffffffffffffffffffffffffffffffffffff1673ffffffffffffffffffffffffffffffffffffffff168152602001908152602001600020549050600081116108ff576040517f08c379a00000000000000000000000000000000000000000000000000000000081526004016108f69061289c565b60405180910390fd5b6000600560003373ffffffffffffffffffffffffffffffffffffffff1673ffffffffffffffffffffffffffffffffffffffff168152602001908152602001600020819055503373ffffffffffffffffffffffffffffffffffffffff166108fc829081150290604051600060405180830381858888f1935050505015801561098a573d6000803e3d6000fd5b503373ffffffffffffffffffffffffffffffffffffffff167feaff4b37086828766ad3268786972c0cd24259d4c87a80f9d3963a3c3d999b0d826040516109d19190611fe3565b60405180910390a25050565b6109e56112c7565b6109ef600061134e565b565b600060608060008060006060610a05611412565b610a0d61144d565b46306000801b600067ffffffffffffffff811115610a2e57610a2d611b55565b5b604051908082528060200260200182016040528015610a5c5781602001602082028036833780820191505090505b507f0f00000000000000000000000000000000000000000000000000000000000000959493929190965096509650965096509650965090919293949596565b60056020528060005260406000206000915090505481565b60008060009054906101000a900473ffffffffffffffffffffffffffffffffffffffff16905090565b610ae633826111ee565b610b25576040517f08c379a0000000000000000000000000000000000000000000000000000000008152600401610b1c90612372565b60405180910390fd5b8373ffffffffffffffffffffffffffffffffffffffff166323b872dd3330866040518463ffffffff1660e01b8152600401610b6293929190612819565b6020604051808303816000875af1158015610b81573d6000803e3d6000fd5b505050506040513d601f19601f82011682018060405250810190610ba5919061271d565b610be4576040517f08c379a0000000000000000000000000000000000000000000000000000000008152600401610bdb90612908565b60405180910390fd5b6040518060c0016040528060045481526020013373ffffffffffffffffffffffffffffffffffffffff1681526020018573ffffffffffffffffffffffffffffffffffffffff168152602001848152602001838152602001600115158152506003600060045481526020019081526020016000206000820151816000015560208201518160010160006101000a81548173ffffffffffffffffffffffffffffffffffffffff021916908373ffffffffffffffffffffffffffffffffffffffff16021790555060408201518160020160006101000a81548173ffffffffffffffffffffffffffffffffffffffff021916908373ffffffffffffffffffffffffffffffffffffffff160217905550606082015181600301556080820151816004015560a08201518160050160006101000a81548160ff0219169083151502179055509050503373ffffffffffffffffffffffffffffffffffffffff166004547f424b3284a7958bb7965c27ca0b2a8b30ce2a56ba954533df15e6bded1b608ed7868686604051610d7393929190612928565b60405180910390a360046000815480929190610d8e9061295f565b919050555050505050565b60045481565b6000610dab83836111ee565b610dea576040517f08c379a0000000000000000000000000000000000000000000000000000000008152600401610de190612372565b60405180910390fd5b6001905092915050565b60036020528060005260406000206000915090508060000154908060010160009054906101000a900473ffffffffffffffffffffffffffffffffffffffff16908060020160009054906101000a900473ffffffffffffffffffffffffffffffffffffffff16908060030154908060040154908060050160009054906101000a900460ff16905086565b6060600060045403610ee557600067ffffffffffffffff811115610ea457610ea3611b55565b5b604051908082528060200260200182016040528015610edd57816020015b610eca611a8c565b815260200190600190039081610ec25790505b509050611165565b600060045467ffffffffffffffff811115610f0357610f02611b55565b5b604051908082528060200260200182016040528015610f3c57816020015b610f29611a8c565b815260200190600190039081610f215790505b5090506000805b6004548110156110b3576003600082815260200190815260200160002060050160009054906101000a900460ff16156110a657600360008281526020019081526020016000206040518060c0016040529081600082015481526020016001820160009054906101000a900473ffffffffffffffffffffffffffffffffffffffff1673ffffffffffffffffffffffffffffffffffffffff1673ffffffffffffffffffffffffffffffffffffffff1681526020016002820160009054906101000a900473ffffffffffffffffffffffffffffffffffffffff1673ffffffffffffffffffffffffffffffffffffffff1673ffffffffffffffffffffffffffffffffffffffff16815260200160038201548152602001600482015481526020016005820160009054906101000a900460ff16151515158152505083838151811061108c5761108b6129a7565b5b602002602001018190525081806110a29061295f565b9250505b8080600101915050610f43565b5060008167ffffffffffffffff8111156110d0576110cf611b55565b5b60405190808252806020026020018201604052801561110957816020015b6110f6611a8c565b8152602001906001900390816110ee5790505b50905060005b8281101561115d5783818151811061112a576111296129a7565b5b6020026020010151828281518110611145576111446129a7565b5b6020026020010181905250808060010191505061110f565b508093505050505b90565b6111706112c7565b600073ffffffffffffffffffffffffffffffffffffffff168173ffffffffffffffffffffffffffffffffffffffff16036111e25760006040517f1e4fbdf70000000000000000000000000000000000000000000000000000000081526004016111d99190611ffe565b60405180910390fd5b6111eb8161134e565b50565b6000806112427f93b9ee68d59779989af380b4a3a710890893468b597ef26691ac33ce8ca1dd33856040516020016112279291906129d6565b60405160208183030381529060405280519060200120611488565b90508373ffffffffffffffffffffffffffffffffffffffff1661126e84836114a290919063ffffffff16565b73ffffffffffffffffffffffffffffffffffffffff161491505092915050565b600080600360008481526020019081526020016000209050600081600401541415806112bf57506000816003015414155b915050919050565b6112cf6114ce565b73ffffffffffffffffffffffffffffffffffffffff166112ed610ab3565b73ffffffffffffffffffffffffffffffffffffffff161461134c576113106114ce565b6040517f118cdaa70000000000000000000000000000000000000000000000000000000081526004016113439190611ffe565b60405180910390fd5b565b60008060009054906101000a900473ffffffffffffffffffffffffffffffffffffffff169050816000806101000a81548173ffffffffffffffffffffffffffffffffffffffff021916908373ffffffffffffffffffffffffffffffffffffffff1602179055508173ffffffffffffffffffffffffffffffffffffffff168173ffffffffffffffffffffffffffffffffffffffff167f8be0079c531659141344cd1fd0a4f28419497f9722a3daafe3b4186f6b6457e060405160405180910390a35050565b606061144860017f00000000000000000000000000000000000000000000000000000000000000006114d690919063ffffffff16565b905090565b606061148360027f00000000000000000000000000000000000000000000000000000000000000006114d690919063ffffffff16565b905090565b600061149b611495611586565b8361163d565b9050919050565b6000806000806114b2868661167e565b9250925092506114c282826116da565b82935050505092915050565b600033905090565b606060ff60001b83146114f3576114ec8361183e565b9050611580565b8180546114ff90612a2e565b80601f016020809104026020016040519081016040528092919081815260200182805461152b90612a2e565b80156115785780601f1061154d57610100808354040283529160200191611578565b820191906000526020600020905b81548152906001019060200180831161155b57829003601f168201915b505050505090505b92915050565b60007f000000000000000000000000000000000000000000000000000000000000000073ffffffffffffffffffffffffffffffffffffffff163073ffffffffffffffffffffffffffffffffffffffff1614801561160257507f000000000000000000000000000000000000000000000000000000000000000046145b1561162f577f0000000000000000000000000000000000000000000000000000000000000000905061163a565b6116376118b2565b90505b90565b60006040517f190100000000000000000000000000000000000000000000000000000000000081528360028201528260228201526042812091505092915050565b600080600060418451036116c35760008060006020870151925060408701519150606087015160001a90506116b588828585611948565b9550955095505050506116d3565b60006002855160001b9250925092505b9250925092565b600060038111156116ee576116ed612a5f565b5b82600381111561170157611700612a5f565b5b031561183a576001600381111561171b5761171a612a5f565b5b82600381111561172e5761172d612a5f565b5b03611765576040517ff645eedf00000000000000000000000000000000000000000000000000000000815260040160405180910390fd5b6002600381111561177957611778612a5f565b5b82600381111561178c5761178b612a5f565b5b036117d1578060001c6040517ffce698f70000000000000000000000000000000000000000000000000000000081526004016117c89190611fe3565b60405180910390fd5b6003808111156117e4576117e3612a5f565b5b8260038111156117f7576117f6612a5f565b5b0361183957806040517fd78bce0c0000000000000000000000000000000000000000000000000000000081526004016118309190612a8e565b60405180910390fd5b5b5050565b6060600061184b83611a3c565b90506000602067ffffffffffffffff81111561186a57611869611b55565b5b6040519080825280601f01601f19166020018201604052801561189c5781602001600182028036833780820191505090505b5090508181528360208201528092505050919050565b60007f8b73c3c69bb8fe3d512ecc4cf759cc79239f7b179b0ffacaa9a75d522b39400f7f00000000000000000000000000000000000000000000000000000000000000007f0000000000000000000000000000000000000000000000000000000000000000463060405160200161192d959493929190612aa9565b60405160208183030381529060405280519060200120905090565b60008060007f7fffffffffffffffffffffffffffffff5d576e7357a4501ddfe92f46681b20a08460001c1115611988576000600385925092509250611a32565b6000600188888888604051600081526020016040526040516119ad9493929190612b18565b6020604051602081039080840390855afa1580156119cf573d6000803e3d6000fd5b505050602060405103519050600073ffffffffffffffffffffffffffffffffffffffff168173ffffffffffffffffffffffffffffffffffffffff1603611a2357600060016000801b93509350935050611a32565b8060008060001b935093509350505b9450945094915050565b60008060ff8360001c169050601f811115611a83576040517fb3512b0c00000000000000000000000000000000000000000000000000000000815260040160405180910390fd5b80915050919050565b6040518060c0016040528060008152602001600073ffffffffffffffffffffffffffffffffffffffff168152602001600073ffffffffffffffffffffffffffffffffffffffff16815260200160008152602001600081526020016000151581525090565b6000604051905090565b600080fd5b600080fd5b6000819050919050565b611b1781611b04565b8114611b2257600080fd5b50565b600081359050611b3481611b0e565b92915050565b600080fd5b600080fd5b6000601f19601f8301169050919050565b7f4e487b7100000000000000000000000000000000000000000000000000000000600052604160045260246000fd5b611b8d82611b44565b810181811067ffffffffffffffff82111715611bac57611bab611b55565b5b80604052505050565b6000611bbf611af0565b9050611bcb8282611b84565b919050565b600067ffffffffffffffff821115611beb57611bea611b55565b5b611bf482611b44565b9050602081019050919050565b82818337600083830152505050565b6000611c23611c1e84611bd0565b611bb5565b905082815260208101848484011115611c3f57611c3e611b3f565b5b611c4a848285611c01565b509392505050565b600082601f830112611c6757611c66611b3a565b5b8135611c77848260208601611c10565b91505092915050565b60008060408385031215611c9757611c96611afa565b5b6000611ca585828601611b25565b925050602083013567ffffffffffffffff811115611cc657611cc5611aff565b5b611cd285828601611c52565b9150509250929050565b600060208284031215611cf257611cf1611afa565b5b600082013567ffffffffffffffff811115611d1057611d0f611aff565b5b611d1c84828501611c52565b91505092915050565b60007fff0000000000000000000000000000000000000000000000000000000000000082169050919050565b611d5a81611d25565b82525050565b600081519050919050565b600082825260208201905092915050565b60005b83811015611d9a578082015181840152602081019050611d7f565b60008484015250505050565b6000611db182611d60565b611dbb8185611d6b565b9350611dcb818560208601611d7c565b611dd481611b44565b840191505092915050565b611de881611b04565b82525050565b600073ffffffffffffffffffffffffffffffffffffffff82169050919050565b6000611e1982611dee565b9050919050565b611e2981611e0e565b82525050565b6000819050919050565b611e4281611e2f565b82525050565b600081519050919050565b600082825260208201905092915050565b6000819050602082019050919050565b611e7d81611b04565b82525050565b6000611e8f8383611e74565b60208301905092915050565b6000602082019050919050565b6000611eb382611e48565b611ebd8185611e53565b9350611ec883611e64565b8060005b83811015611ef9578151611ee08882611e83565b9750611eeb83611e9b565b925050600181019050611ecc565b5085935050505092915050565b600060e082019050611f1b600083018a611d51565b8181036020830152611f2d8189611da6565b90508181036040830152611f418188611da6565b9050611f506060830187611ddf565b611f5d6080830186611e20565b611f6a60a0830185611e39565b81810360c0830152611f7c8184611ea8565b905098975050505050505050565b611f9381611e0e565b8114611f9e57600080fd5b50565b600081359050611fb081611f8a565b92915050565b600060208284031215611fcc57611fcb611afa565b5b6000611fda84828501611fa1565b91505092915050565b6000602082019050611ff86000830184611ddf565b92915050565b60006020820190506120136000830184611e20565b92915050565b6000806000806080858703121561203357612032611afa565b5b600061204187828801611fa1565b945050602061205287828801611b25565b935050604061206387828801611b25565b925050606085013567ffffffffffffffff81111561208457612083611aff565b5b61209087828801611c52565b91505092959194509250565b600080604083850312156120b3576120b2611afa565b5b60006120c185828601611fa1565b925050602083013567ffffffffffffffff8111156120e2576120e1611aff565b5b6120ee85828601611c52565b9150509250929050565b60008115159050919050565b61210d816120f8565b82525050565b60006020820190506121286000830184612104565b92915050565b60006020828403121561214457612143611afa565b5b600061215284828501611b25565b91505092915050565b600060c0820190506121706000830189611ddf565b61217d6020830188611e20565b61218a6040830187611e20565b6121976060830186611ddf565b6121a46080830185611ddf565b6121b160a0830184612104565b979650505050505050565b600081519050919050565b600082825260208201905092915050565b6000819050602082019050919050565b6121f181611e0e565b82525050565b612200816120f8565b82525050565b60c08201600082015161221c6000850182611e74565b50602082015161222f60208501826121e8565b50604082015161224260408501826121e8565b5060608201516122556060850182611e74565b5060808201516122686080850182611e74565b5060a082015161227b60a08501826121f7565b50505050565b600061228d8383612206565b60c08301905092915050565b6000602082019050919050565b60006122b1826121bc565b6122bb81856121c7565b93506122c6836121d8565b8060005b838110156122f75781516122de8882612281565b97506122e983612299565b9250506001810190506122ca565b5085935050505092915050565b6000602082019050818103600083015261231e81846122a6565b905092915050565b7f496e76616c6964207369676e6174757265000000000000000000000000000000600082015250565b600061235c601183611d6b565b915061236782612326565b602082019050919050565b6000602082019050818103600083015261238b8161234f565b9050919050565b7f4c697374696e6720646f6573206e6f7420657869737400000000000000000000600082015250565b60006123c8601683611d6b565b91506123d382612392565b602082019050919050565b600060208201905081810360008301526123f7816123bb565b9050919050565b7f4c697374696e6720696e61637469766500000000000000000000000000000000600082015250565b6000612434601083611d6b565b915061243f826123fe565b602082019050919050565b6000602082019050818103600083015261246381612427565b9050919050565b7f496e636f727265637420457468657220616d6f756e742073656e740000000000600082015250565b60006124a0601b83611d6b565b91506124ab8261246a565b602082019050919050565b600060208201905081810360008301526124cf81612493565b9050919050565b7f496e73756666696369656e742045746865722073656e74000000000000000000600082015250565b600061250c601783611d6b565b9150612517826124d6565b602082019050919050565b6000602082019050818103600083015261253b816124ff565b9050919050565b60008151905061255181611b0e565b92915050565b60006020828403121561256d5761256c611afa565b5b600061257b84828501612542565b91505092915050565b7f496e73756666696369656e7420746f6b656e2062616c616e6365000000000000600082015250565b60006125ba601a83611d6b565b91506125c582612584565b602082019050919050565b600060208201905081810360008301526125e9816125ad565b9050919050565b7f53656c6c65722063616e6e6f74207075726368617365206f776e206974656d00600082015250565b6000612626601f83611d6b565b9150612631826125f0565b602082019050919050565b6000602082019050818103600083015261265581612619565b9050919050565b7f496e76616c696420616d6f756e74000000000000000000000000000000000000600082015250565b6000612692600e83611d6b565b915061269d8261265c565b602082019050919050565b600060208201905081810360008301526126c181612685565b9050919050565b60006040820190506126dd6000830185611e20565b6126ea6020830184611ddf565b9392505050565b6126fa816120f8565b811461270557600080fd5b50565b600081519050612717816126f1565b92915050565b60006020828403121561273357612732611afa565b5b600061274184828501612708565b91505092915050565b7f546f6b656e207472616e73666572206661696c65640000000000000000000000600082015250565b6000612780601583611d6b565b915061278b8261274a565b602082019050919050565b600060208201905081810360008301526127af81612773565b9050919050565b7f4e487b7100000000000000000000000000000000000000000000000000000000600052601160045260246000fd5b60006127f082611b04565b91506127fb83611b04565b9250828201905080821115612813576128126127b6565b5b92915050565b600060608201905061282e6000830186611e20565b61283b6020830185611e20565b6128486040830184611ddf565b949350505050565b7f4e6f2066756e647320746f207769746864726177000000000000000000000000600082015250565b6000612886601483611d6b565b915061289182612850565b602082019050919050565b600060208201905081810360008301526128b581612879565b9050919050565b7f5472616e73666572206661696c65640000000000000000000000000000000000600082015250565b60006128f2600f83611d6b565b91506128fd826128bc565b602082019050919050565b60006020820190508181036000830152612921816128e5565b9050919050565b600060608201905061293d6000830186611e20565b61294a6020830185611ddf565b6129576040830184611ddf565b949350505050565b600061296a82611b04565b91507fffffffffffffffffffffffffffffffffffffffffffffffffffffffffffffffff820361299c5761299b6127b6565b5b600182019050919050565b7f4e487b7100000000000000000000000000000000000000000000000000000000600052603260045260246000fd5b60006040820190506129eb6000830185611e39565b6129f86020830184611e20565b9392505050565b7f4e487b7100000000000000000000000000000000000000000000000000000000600052602260045260246000fd5b60006002820490506001821680612a4657607f821691505b602082108103612a5957612a586129ff565b5b50919050565b7f4e487b7100000000000000000000000000000000000000000000000000000000600052602160045260246000fd5b6000602082019050612aa36000830184611e39565b92915050565b600060a082019050612abe6000830188611e39565b612acb6020830187611e39565b612ad86040830186611e39565b612ae56060830185611ddf565b612af26080830184611e20565b9695505050505050565b600060ff82169050919050565b612b1281612afc565b82525050565b6000608082019050612b2d6000830187611e39565b612b3a6020830186612b09565b612b476040830185611e39565b612b546060830184611e39565b9594505050505056fea2646970667358221220de50a6cec7163309ca0a91837eb16a648184651a82644032449ae7eecf289bff64736f6c634300081c0033",
  "linkReferences": {},
  "deployedLinkReferences": {}
}